{
  "contractName": "VotingApp",
  "abi": [
    {
      "constant": true,
      "inputs": [
        {
          "name": "",
          "type": "address"
        }
      ],
      "name": "voterAddresses",
      "outputs": [
        {
          "name": "",
          "type": "bool"
        }
      ],
      "payable": false,
      "stateMutability": "view",
      "type": "function",
      "signature": "0x03727283"
    },
    {
      "constant": true,
      "inputs": [],
      "name": "name",
      "outputs": [
        {
          "name": "",
          "type": "string"
        }
      ],
      "payable": false,
      "stateMutability": "view",
      "type": "function",
      "signature": "0x06fdde03"
    },
    {
      "constant": true,
      "inputs": [
        {
          "name": "",
          "type": "uint256"
        }
      ],
      "name": "candidates",
      "outputs": [
        {
          "name": "id",
          "type": "uint256"
        },
        {
          "name": "candidateName",
          "type": "string"
        },
        {
          "name": "candidateAddress",
          "type": "address"
        },
        {
          "name": "voteCount",
          "type": "uint256"
        }
      ],
      "payable": false,
      "stateMutability": "view",
      "type": "function",
      "signature": "0x3477ee2e"
    },
    {
      "constant": true,
      "inputs": [],
      "name": "candidateCount",
      "outputs": [
        {
          "name": "",
          "type": "uint256"
        }
      ],
      "payable": false,
      "stateMutability": "view",
      "type": "function",
      "signature": "0xa9a981a3"
    },
    {
      "constant": true,
      "inputs": [
        {
          "name": "",
          "type": "address"
        }
      ],
      "name": "candidateAddresses",
      "outputs": [
        {
          "name": "",
          "type": "bool"
        }
      ],
      "payable": false,
      "stateMutability": "view",
      "type": "function",
      "signature": "0xe42b5d4b"
    },
    {
      "inputs": [],
      "payable": false,
      "stateMutability": "nonpayable",
      "type": "constructor",
      "signature": "constructor"
    },
    {
      "anonymous": false,
      "inputs": [
        {
          "indexed": false,
          "name": "id",
          "type": "uint256"
        },
        {
          "indexed": false,
          "name": "candidateName",
          "type": "string"
        },
        {
          "indexed": false,
          "name": "candidateAddress",
          "type": "address"
        },
        {
          "indexed": false,
          "name": "voteCount",
          "type": "uint256"
        }
      ],
      "name": "CandidateCreated",
      "type": "event",
      "signature": "0x320b8a3efdbe22b84c227c5b12a1ed1423d74243f6e456d4d049bd7edc049969"
    },
    {
      "anonymous": false,
      "inputs": [
        {
          "indexed": false,
          "name": "candidateAddress",
          "type": "address"
        },
        {
          "indexed": false,
          "name": "voterAddress",
          "type": "address"
        },
        {
          "indexed": false,
          "name": "_totalVote",
          "type": "uint256"
        }
      ],
      "name": "VoteMade",
      "type": "event",
      "signature": "0x793c0a3703b97a6cdffe58211f7e87432ec975fbc5a7a995c95389bf29616d65"
    },
    {
      "constant": false,
      "inputs": [
        {
          "name": "_candidateName",
          "type": "string"
        }
      ],
      "name": "createCandidate",
      "outputs": [],
      "payable": false,
      "stateMutability": "nonpayable",
      "type": "function",
      "signature": "0x5fba7a56"
    },
    {
      "constant": false,
      "inputs": [
        {
          "name": "_id",
          "type": "uint256"
        },
        {
          "name": "_candidateAddress",
          "type": "address"
        }
      ],
      "name": "voteForCandidate",
      "outputs": [],
      "payable": false,
      "stateMutability": "nonpayable",
      "type": "function",
      "signature": "0x0b967584"
    }
  ],
  "bytecode": "0x60806040526000805534801561001457600080fd5b506040805190810160405280600e81526020017f566f74696e67417070205265646f00000000000000000000000000000000000081525060019080519060200190610060929190610066565b5061010b565b828054600181600116156101000203166002900490600052602060002090601f016020900481019282601f106100a757805160ff19168380011785556100d5565b828001600101855582156100d5579182015b828111156100d45782518255916020019190600101906100b9565b5b5090506100e291906100e6565b5090565b61010891905b808211156101045760008160009055506001016100ec565b5090565b90565b610ca08061011a6000396000f3fe608060405260043610610083576000357c0100000000000000000000000000000000000000000000000000000000900463ffffffff168063037272831461008857806306fdde03146100f15780630b967584146101815780633477ee2e146101dc5780635fba7a56146102d1578063a9a981a314610357578063e42b5d4b14610382575b600080fd5b34801561009457600080fd5b506100d7600480360360208110156100ab57600080fd5b81019080803573ffffffffffffffffffffffffffffffffffffffff1690602001909291905050506103eb565b604051808215151515815260200191505060405180910390f35b3480156100fd57600080fd5b5061010661040b565b6040518080602001828103825283818151815260200191508051906020019080838360005b8381101561014657808201518184015260208101905061012b565b50505050905090810190601f1680156101735780820380516001836020036101000a031916815260200191505b509250505060405180910390f35b34801561018d57600080fd5b506101da600480360360408110156101a457600080fd5b8101908080359060200190929190803573ffffffffffffffffffffffffffffffffffffffff1690602001909291905050506104a9565b005b3480156101e857600080fd5b50610215600480360360208110156101ff57600080fd5b8101908080359060200190929190505050610734565b60405180858152602001806020018473ffffffffffffffffffffffffffffffffffffffff1673ffffffffffffffffffffffffffffffffffffffff168152602001838152602001828103825285818151815260200191508051906020019080838360005b83811015610293578082015181840152602081019050610278565b50505050905090810190601f1680156102c05780820380516001836020036101000a031916815260200191505b509550505050505060405180910390f35b3480156102dd57600080fd5b50610355600480360360208110156102f457600080fd5b810190808035906020019064010000000081111561031157600080fd5b82018360208201111561032357600080fd5b8035906020019184600183028401116401000000008311171561034557600080fd5b909192939192939050505061081c565b005b34801561036357600080fd5b5061036c610ba9565b6040518082815260200191505060405180910390f35b34801561038e57600080fd5b506103d1600480360360208110156103a557600080fd5b81019080803573ffffffffffffffffffffffffffffffffffffffff169060200190929190505050610baf565b604051808215151515815260200191505060405180910390f35b60046020528060005260406000206000915054906101000a900460ff1681565b60018054600181600116156101000203166002900480601f0160208091040260200160405190810160405280929190818152602001828054600181600116156101000203166002900480156104a15780601f10610476576101008083540402835291602001916104a1565b820191906000526020600020905b81548152906001019060200180831161048457829003601f168201915b505050505081565b600460003373ffffffffffffffffffffffffffffffffffffffff1673ffffffffffffffffffffffffffffffffffffffff16815260200190815260200160002060009054906101000a900460ff1615151561056b576040517f08c379a00000000000000000000000000000000000000000000000000000000081526004018080602001828103825260188152602001807f7468697320766f74657220616c726561647920766f746564000000000000000081525060200191505060405180910390fd5b8073ffffffffffffffffffffffffffffffffffffffff163373ffffffffffffffffffffffffffffffffffffffff161415151561060f576040517f08c379a000000000000000000000000000000000000000000000000000000000815260040180806020018281038252601b8152602001807f796f752063616e277420766f746520666f7220796f757273656c66000000000081525060200191505060405180910390fd5b60006002600084815260200190815260200160002060030160008154809291906001019190505590506001600460003373ffffffffffffffffffffffffffffffffffffffff1673ffffffffffffffffffffffffffffffffffffffff16815260200190815260200160002060006101000a81548160ff0219169083151502179055507f793c0a3703b97a6cdffe58211f7e87432ec975fbc5a7a995c95389bf29616d65823383604051808473ffffffffffffffffffffffffffffffffffffffff1673ffffffffffffffffffffffffffffffffffffffff1681526020018373ffffffffffffffffffffffffffffffffffffffff1673ffffffffffffffffffffffffffffffffffffffff168152602001828152602001935050505060405180910390a1505050565b6002602052806000526040600020600091509050806000015490806001018054600181600116156101000203166002900480601f0160208091040260200160405190810160405280929190818152602001828054600181600116156101000203166002900480156107e65780601f106107bb576101008083540402835291602001916107e6565b820191906000526020600020905b8154815290600101906020018083116107c957829003601f168201915b5050505050908060020160009054906101000a900473ffffffffffffffffffffffffffffffffffffffff16908060030154905084565b600073ffffffffffffffffffffffffffffffffffffffff163373ffffffffffffffffffffffffffffffffffffffff16141515156108c1576040517f08c379a000000000000000000000000000000000000000000000000000000000815260040180806020018281038252601c8152602001807f53656e6465722061646472657373206d7573742062652076616c69640000000081525060200191505060405180910390fd5b6000339050600360003373ffffffffffffffffffffffffffffffffffffffff1673ffffffffffffffffffffffffffffffffffffffff16815260200190815260200160002060009054906101000a900460ff16151515610988576040517f08c379a000000000000000000000000000000000000000000000000000000000815260040180806020018281038252601d8152602001807f746869732063616c6c657220616c7265616479207375626d697474656400000081525060200191505060405180910390fd5b600160005401600081905550608060405190810160405280600054815260200184848080601f016020809104026020016040519081016040528093929190818152602001838380828437600081840152601f19601f8201169050808301925050505050505081526020018273ffffffffffffffffffffffffffffffffffffffff16815260200160008152506002600080548152602001908152602001600020600082015181600001556020820151816001019080519060200190610a4d929190610bcf565b5060408201518160020160006101000a81548173ffffffffffffffffffffffffffffffffffffffff021916908373ffffffffffffffffffffffffffffffffffffffff160217905550606082015181600301559050506001600360008373ffffffffffffffffffffffffffffffffffffffff1673ffffffffffffffffffffffffffffffffffffffff16815260200190815260200160002060006101000a81548160ff0219169083151502179055507f320b8a3efdbe22b84c227c5b12a1ed1423d74243f6e456d4d049bd7edc049969600054848484600060405180868152602001806020018473ffffffffffffffffffffffffffffffffffffffff1673ffffffffffffffffffffffffffffffffffffffff1681526020018381526020018281038252868682818152602001925080828437600081840152601f19601f820116905080830192505050965050505050505060405180910390a1505050565b60005481565b60036020528060005260406000206000915054906101000a900460ff1681565b828054600181600116156101000203166002900490600052602060002090601f016020900481019282601f10610c1057805160ff1916838001178555610c3e565b82800160010185558215610c3e579182015b82811115610c3d578251825591602001919060010190610c22565b5b509050610c4b9190610c4f565b5090565b610c7191905b80821115610c6d576000816000905550600101610c55565b5090565b9056fea165627a7a72305820d86d8f4449dc1801d69c9b77172930a2f1ddec3774936235f76e38a68a5bebca0029",
  "source": "pragma solidity ^0.5.0;\n\ncontract VotingApp {\n    \n    uint public candidateCount = 0;\n\n    string public name;\n\n    // create for candidate\n    mapping(uint => Candidate) public candidates;\n    mapping(address => bool) public candidateAddresses;\n    mapping(address => bool) public voterAddresses;\n\n\n    //Defining the struct for our candidates\n    struct Candidate {\n        uint id;\n        string candidateName;\n        address candidateAddress;\n        uint voteCount;\n\n    }\n\n    event CandidateCreated(\n        uint id,\n        string candidateName,\n        address candidateAddress,\n        uint voteCount\n    );\n\n    event VoteMade (\n        address candidateAddress,\n        address voterAddress,\n        uint _totalVote\n    );\n\n    // constructor function runs first whenever contract is deployed\n    constructor() public {\n        name = \"VotingApp Redo\";\n    }\n    \n\n    // save to callData as neither parameter will be altered and it's an external function \n    function createCandidate(string calldata _candidateName ) external {\n        // does caller exist\n        require(msg.sender != address(0), \"Sender address must be valid\");\n        address _newAddress = address(msg.sender);\n        require(!candidateAddresses[msg.sender],\"this caller already submitted\");\n        // require(_newAddress != address(0));\n        // add to counter\n        candidateCount = candidateCount + 1;\n        // call Candidate struct to create new candidate + to the candidates[] array\n        candidates[candidateCount] = Candidate(candidateCount, _candidateName, _newAddress, 0);\n        candidateAddresses[_newAddress] = true;\n        emit CandidateCreated(candidateCount, _candidateName, _newAddress, 0); \n    }\n\n    function voteForCandidate(uint _id, address _candidateAddress) external {\n        require(!voterAddresses[msg.sender],\"this voter already voted\");\n        require(msg.sender != _candidateAddress ,\"you can't vote for yourself\");\n        // used the passed in id to access candidate object and raise voteCount by +1\n        uint _currentVoteCount = candidates[_id].voteCount ++;\n        // send event that this is done\n        voterAddresses[msg.sender] = true;\n        emit VoteMade(_candidateAddress, msg.sender, _currentVoteCount);\n\n    }\n\n\n    \n\n\n\n}",
  "sourcePath": "/Users/tommystuart/Desktop/Web3Stuff/CodingStuff/MyOwn/votingApp2/src/contracts/VotingApp.sol",
  "compiler": {
    "name": "solc",
    "version": "0.5.0+commit.1d4f565a.Emscripten.clang"
  },
  "schemaVersion": "3.0.2",
  "updatedAt": "2022-06-26T17:27:48.350Z",
  "devdoc": {
    "methods": {}
  },
  "userdoc": {
    "methods": {}
  }
}